:020000040800F2
:1000000000500020D9470008A1440008A34400087C
:10001000A5440008A7440008A94400080000000007
:10002000000000000000000000000000AB440008D9
:10003000AD44000800000000AF440008B1440008CF
:1000400021480008214800082148000821480008EC
:1000500021480008214800082148000821480008DC
:10006000214800082148000821480008B54400083C
:1000700021480008214800082148000821480008BC
:1000800021480008214800082148000821480008AC
:10009000214800082148000821480008214800089C
:1000A00021480008C14400082148000821480008F0
:1000B0002148000821480008CD44000821480008D4
:1000C000214800082148000821480008214800086C
:1000D00021480008D94400082148000821480008A8
:1000E00021480008214800082148000800000000BD
:1000F0000000000000000000000000000000000000
:0C01000000000000000000005FF808F1A3
:1001100010B5054C237833B9044B13B10448AFF341
:1001200000800123237010BD9C000020000000000F
:100130005C4E000808B5034B1BB103490348AFF3FD
:10014000008008BD00000000A00000205C4E0008F8
:1001500010F8012B11F8013B012A28BF9A42F7D071
:10016000D01A7047034613F8012B002AFBD1181A46
:100170000138704781F0004102E000BF83F0004386
:1001800030B54FEA41044FEA430594EA050F08BF32
:1001900090EA020F1FBF54EA000C55EA020C7FEAF6
:1001A000645C7FEA655C00F0E2804FEA5454D4EB73
:1001B0005555B8BF6D420CDD2C4480EA020281EA3D
:1001C000030382EA000083EA010180EA020281EA75
:1001D0000303362D88BF30BD11F0004F4FEA0131C7
:1001E0004FF4801C4CEA113102D0404261EB4101D6
:1001F00013F0004F4FEA03334CEA133302D052425C
:1002000063EB430394EA050F00F0A780A4F1010417
:10021000D5F1200E0DDB02FA0EFC22FA05F2801851
:1002200041F1000103FA0EF2801843FA05F3594137
:100230000EE0A5F120050EF1200E012A03FA0EFCB6
:1002400028BF4CF0020C43FA05F3C01851EBE371E0
:1002500001F0004507D54FF0000EDCF1000C7EEBFD
:1002600000006EEB0101B1F5801F1BD3B1F5001F3B
:100270000CD349085FEA30004FEA3C0C04F101045A
:100280004FEA445212F5800F80F09A80BCF1004F83
:1002900008BF5FEA500C50F1000041EB045141EA05
:1002A000050130BD5FEA4C0C404141EB010111F406
:1002B000801FA4F10104E9D191F0000F04BF0146B1
:1002C0000020B1FA81F308BF2033A3F10B03B3F18F
:1002D00020020CDA0C3208DD02F1140CC2F10C021F
:1002E00001FA0CF021FA02F10CE002F11402D8BF7D
:1002F000C2F1200C01FA02F120FA0CFCDCBF41EA49
:100300000C019040E41AA2BF01EB0451294330BD17
:100310006FEA04041F3C1CDA0C340EDC04F11404F4
:10032000C4F1200220FA04F001FA02F340EA0300CB
:1003300021FA04F345EA030130BDC4F10C04C4F111
:10034000200220FA02F001FA04F340EA03002946F1
:1003500030BD21FA04F0294630BD94F0000F83F43B
:10036000801306BF81F480110134013D4EE77FEA1E
:10037000645C18BF7FEA655C29D094EA050F08BF6A
:1003800090EA020F05D054EA000C04BF194610464B
:1003900030BD91EA030F1EBF0021002030BD5FEA8F
:1003A000545C05D14000494128BF41F0004130BDB7
:1003B00014F580043CBF01F5801130BD01F000450B
:1003C00045F0FE4141F470014FF0000030BD7FEA7E
:1003D000645C1ABF194610467FEA655C1CBF0B4679
:1003E000024650EA013406BF52EA033591EA030F90
:1003F00041F4002130BD00BF90F0000F04BF002188
:10040000704730B54FF4806404F132044FF00005BA
:100410004FF0000150E700BF90F0000F04BF002133
:10042000704730B54FF4806404F1320410F0004599
:1004300048BF40424FF000013EE700BF42004FEA94
:10044000E2014FEA31014FEA02701FBF12F07F4311
:1004500093F07F4F81F06051704792F0000F14BF0E
:1004600093F07F4F704730B54FF4607401F0004552
:1004700021F0004120E700BF50EA010208BF7047A9
:1004800030B54FF000050AE050EA010208BF70479E
:1004900030B511F0004502D5404261EB41014FF407
:1004A000806404F132045FEA915C3FF4DCAE4FF00B
:1004B00003025FEADC0C18BF03325FEADC0C18BFF2
:1004C000033202EBDC02C2F1200300FA03FC20FA43
:1004D00002F001FA03FE40EA0E0021FA02F1144490
:1004E000C1E600BF70B54FF0FF0C4CF4E06C1CEAA5
:1004F00011541DBF1CEA135594EA0C0F95EA0C0F1A
:1005000000F0DEF82C4481EA030621EA4C5123EA8C
:100510004C5350EA013518BF52EA033541F48011BB
:1005200043F4801338D0A0FB02CE4FF00005E1FB6E
:1005300002E506F00042E0FB03E54FF00006E1FBB8
:1005400003569CF0000F18BF4EF0010EA4F1FF04FB
:10055000B6F5007F64F5407404D25FEA4E0E6D413B
:1005600046EB060642EAC62141EA55514FEAC5204C
:1005700040EA5E504FEACE2EB4F1FD0C88BFBCF5C8
:10058000E06F1ED8BEF1004F08BF5FEA500E50F179
:10059000000041EB045170BD06F0004646EA01013F
:1005A00040EA020081EA0301B4EB5C04C2BFD4EB71
:1005B0000C0541EA045170BD41F480114FF0000E6A
:1005C000013C00F3AB8014F1360FDEBF002001F0D8
:1005D000004170BDC4F10004203C35DA0C341BDC52
:1005E00004F11404C4F1200500FA05F320FA04F024
:1005F00001FA05F240EA020001F0004221F0004158
:1006000010EBD37021FA04F642EB06015EEA430ECA
:1006100008BF20EAD37070BDC4F10C04C4F12005FA
:1006200000FA04F320FA05F001FA04F240EA0200AD
:1006300001F0004110EBD37041F100015EEA430E7E
:1006400008BF20EAD37070BDC4F1200500FA05F29E
:100650004EEA020E20FA04F301FA05F243EA02031D
:1006600021FA04F001F0004121FA04F220EA02002C
:1006700000EBD3705EEA430E08BF20EAD37070BD72
:1006800094F0000F0FD101F00046400041EB010152
:1006900011F4801F08BF013CF7D041EA060195F034
:1006A000000F18BF704703F00046520043EB0303EE
:1006B00013F4801F08BF013DF7D043EA06037047DB
:1006C00094EA0C0F0CEA135518BF95EA0C0F0CD0E6
:1006D00050EA410618BF52EA4306D1D181EA03012C
:1006E00001F000414FF0000070BD50EA410606BF26
:1006F0001046194652EA430619D094EA0C0F02D16B
:1007000050EA013613D195EA0C0F05D152EA0336AF
:100710001CBF104619460AD181EA030101F00041CD
:1007200041F0FE4141F470014FF0000070BD41F016
:10073000FE4141F4780170BD70B54FF0FF0C4CF4F0
:10074000E06C1CEA11541DBF1CEA135594EA0C0F0F
:1007500095EA0C0F00F0A7F8A4EB050481EA030E5C
:1007600052EA03354FEA013100F088804FEA033343
:100770004FF0805545EA131343EA12634FEA022211
:1007800045EA111545EA10654FEA00260EF00041D2
:100790009D4208BF964244F1FD0404F5407402D224
:1007A0005B084FEA3202B61A65EB03055B084FEAB5
:1007B00032024FF480104FF4002CB6EB020E75EBB2
:1007C000030E22BFB61A754640EA0C005B084FEADA
:1007D0003202B6EB020E75EB030E22BFB61A754657
:1007E00040EA5C005B084FEA3202B6EB020E75EBA2
:1007F000030E22BFB61A754640EA9C005B084FEA1A
:100800003202B6EB020E75EB030E22BFB61A754626
:1008100040EADC0055EA060E18D04FEA051545EA15
:1008200016754FEA06164FEAC30343EA52734FEABE
:10083000C2025FEA1C1CC0D111F4801F0BD141EA37
:1008400000014FF000004FF0004CB6E711F4801F9C
:1008500004BF01430020B4F1FD0C88BFBCF5E06F7C
:100860003FF6AFAEB5EB030C04BFB6EB020C5FEA8C
:10087000500C50F1000041EB045170BD0EF0004EE1
:100880004EEA113114EB5C04C2BFD4EB0C0541EA13
:10089000045170BD41F480114FF0000E013C90E610
:1008A00045EA060E8DE60CEA135594EA0C0F08BFD4
:1008B00095EA0C0F3FF43BAF94EA0C0F0AD150EAD3
:1008C00001347FF434AF95EA0C0F7FF425AF104666
:1008D00019462CE795EA0C0F06D152EA03353FF48E
:1008E000FDAE1046194622E750EA410618BF52EA0B
:1008F00043067FF4C5AE50EA41047FF40DAF52EADF
:1009000043057FF4EBAE12E74FEA4102B2F1E04358
:1009100024BFB3F5001CDCF1FE5C0DD901F0004CE6
:100920004FEAC0024CEA5070B2F1004F40EB830036
:1009300008BF20F00100704711F0804F21D113F162
:100940003872BCBF01F00040704741F480114FEA9B
:100950005252C2F11802C2F1200C10FA0CF320FA24
:1009600002F018BF40F001004FEAC1234FEAD32341
:1009700003FA0CFC40EA0C0023FA02F34FEA4303AB
:10098000CCE77FEA625307D150EA01331EBF4FF034
:10099000FE4040F44000704701F0004040F0FE404F
:1009A00040F40000704700BF80F0004002E000BF4C
:1009B00081F0004142001FBF5FEA410392EA030F4A
:1009C0007FEA226C7FEA236C6AD04FEA1262D2EB94
:1009D0001363C1BFD218414048404140B8BF5B4299
:1009E000192B88BF704710F0004F40F4000020F032
:1009F0007F4018BF404211F0004F41F4000121F048
:100A00007F4118BF494292EA030F3FD0A2F1010291
:100A100041FA03FC10EB0C00C3F1200301FA03F1CF
:100A200000F0004302D5494260EB4000B0F5000FF2
:100A300013D3B0F1807F06D340084FEA310102F1B1
:100A40000102FE2A51D2B1F1004F40EBC25008BF63
:100A500020F0010040EA03007047490040EB00002D
:100A600010F4000FA2F10102EDD1B0FA80FCACF15C
:100A7000080CB2EB0C0200FA0CF0AABF00EBC2505B
:100A800052421843BCBFD0401843704792F0000F49
:100A900081F4000106BF80F400000132013BB5E79C
:100AA0004FEA41037FEA226C18BF7FEA236C21D012
:100AB00092EA030F04D092F0000F08BF0846704777
:100AC00090EA010F1CBF0020704712F07F4F04D145
:100AD000400028BF40F00040704712F100723CBF58
:100AE00000F50000704700F0004343F0FE4040F482
:100AF000000070477FEA226216BF08467FEA236340
:100B00000146420206BF5FEA412390EA010F40F42A
:100B1000800070474FF0000304E000BF10F0004376
:100B200048BF40425FEA000C08BF704743F096435D
:100B300001464FF000001CE050EA010208BF704778
:100B40004FF000030AE000BF50EA010208BF7047FF
:100B500011F0004302D5404261EB41015FEA010C14
:100B600002BF84460146002043F0B64308BFA3F10C
:100B70008053A3F50003BCFA8CF2083AA3EBC253EE
:100B800010DB01FA02FC634400FA02FCC2F120020D
:100B9000BCF1004F20FA02F243EB020008BF20F044
:100BA0000100704702F1200201FA02FCC2F12002AA
:100BB00050EA4C0021FA02F243EB020008BF20EA9F
:100BC000DC7070474FF0FF0C1CEAD0521EBF1CEACD
:100BD000D15392EA0C0F93EA0C0F6FD01A4480EABB
:100BE000010C400218BF5FEA41211ED04FF00063A4
:100BF00043EA501043EA5111A0FB01310CF00040D0
:100C0000B1F5000F3EBF490041EAD3715B0040EAF5
:100C1000010062F17F02FD2A1DD8B3F1004F40EBC5
:100C2000C25008BF20F00100704790F0000F0CF098
:100C3000004C08BF49024CEA502040EA51207F3A5C
:100C4000C2BFD2F1FF0340EAC250704740F4000037
:100C50004FF00003013A5DDC12F1190FDCBF00F028
:100C600000407047C2F10002410021FA02F1C2F1D6
:100C7000200200FA02FC5FEA310040F1000053EA72
:100C80004C0308BF20EADC70704792F0000F00F0C0
:100C9000004C02BF400010F4000F013AF9D040EAC6
:100CA0000C0093F0000F01F0004C02BF490011F45A
:100CB000000F013BF9D041EA0C018FE70CEAD15358
:100CC00092EA0C0F18BF93EA0C0F0AD030F0004CD8
:100CD00018BF31F0004CD8D180EA010000F000408C
:100CE000704790F0000F17BF90F0004F084691F04A
:100CF000000F91F0004F14D092EA0C0F01D1420284
:100D00000FD193EA0C0F03D14B0218BF084608D14C
:100D100080EA010000F0004040F0FE4040F4000096
:100D2000704740F0FE4040F4400070474FF0FF0C29
:100D30001CEAD0521EBF1CEAD15392EA0C0F93EA70
:100D40000C0F69D0A2EB030280EA010C49024FEAC2
:100D5000402037D04FF0805343EA111143EA10137B
:100D60000CF000408B4238BF5B0042F17D024FF433
:100D7000000C8B4224BF5B1A40EA0C00B3EB510F0E
:100D800024BFA3EB510340EA5C00B3EB910F24BFF7
:100D9000A3EB910340EA9C00B3EBD10F24BFA3EB7C
:100DA000D10340EADC001B0118BF5FEA1C1CE0D144
:100DB000FD2A3FF650AF8B4240EBC25008BF20F0F7
:100DC000010070470CF0004C4CEA50207F32C2BF4B
:100DD000D2F1FF0340EAC250704740F400004FF0E8
:100DE0000003013A37E792F0000F00F0004C02BF19
:100DF000400010F4000F013AF9D040EA0C0093F0E3
:100E0000000F01F0004C02BF490011F4000F013B3C
:100E1000F9D041EA0C0195E70CEAD15392EA0C0FA4
:100E200008D142027FF47DAF93EA0C0F7FF470AFDC
:100E3000084676E793EA0C0F04D14B023FF44CAF1F
:100E400008466EE730F0004C18BF31F0004CCAD1B4
:100E500030F000427FF45CAF31F000437FF43CAFF0
:100E60005FE700BF4FF0FF3C06E000BF4FF0010C12
:100E700002E000BF4FF0010C4DF804CD4FEA4002F4
:100E80004FEA41037FEA226C18BF7FEA236C11D03E
:100E900001B052EA530C18BF90EA010F58BFB2EBF1
:100EA000030088BFC81738BF6FEAE17018BF40F071
:100EB000010070477FEA226C02D15FEA402C05D125
:100EC0007FEA236CE4D15FEA412CE1D05DF8040BAA
:100ED000704700BF844608466146FFE70FB5FFF73D
:100EE000C9FF002848BF10F1000F0FBD4DF808EDF5
:100EF000FFF7F4FF0CBF012000205DF808FB00BFE6
:100F00004DF808EDFFF7EAFF34BF012000205DF83F
:100F100008FB00BF4DF808EDFFF7E0FF94BF01208C
:100F200000205DF808FB00BF4DF808EDFFF7D2FF89
:100F300094BF012000205DF808FB00BF4DF808EDCC
:100F4000FFF7C8FF34BF012000205DF808FB00BF99
:100F50004FEA4002B2F1FE4F0FD34FF09E03B3EBC6
:100F600012620DD94FEA002343F0004310F0004F06
:100F700023FA02F018BF404270474FF0000070475C
:100F800012F1610F01D1420205D110F0004008BFFB
:100F90006FF0004070474FF00000704742000ED2E3
:100FA000B2F1FE4F0BD34FF09E03B3EB126209D4A4
:100FB0004FEA002343F0004323FA02F070474FF05A
:100FC0000000704712F1610F01D1420202D14FF0CF
:100FD000FF3070474FF00000704700BF38B50E4B30
:100FE000054618784FF47A73B3FBF0F30B4A106898
:100FF000B0FBF3F000F0C8FA044658B90F2D09D839
:10100000024629464FF0FF3000F07CFA044B2046A0
:101010001D6038BD012038BD0000002030000020D8
:1010200004000020074A08B51368032043F01003AA
:10103000136000F055FA0020FFF7D0FF03F00EFA1E
:10104000002008BD00200240034A044B11681B78B1
:101050000B441360704700BF5C02002000000020BA
:10106000014B1868704700BF5C02002038B5044689
:10107000FFF7F6FF0546631C1EBF044B1B78E41800
:10108000FFF7EEFF401B8442FAD838BD0000002075
:101090007047436A10B59A6A12F0500F1BD19A6AD2
:1010A00042F400729A621A68926802F46022B2F501
:1010B000602F0CD11A7B52B99A6A22F480729A621C
:1010C0009A6AD2045EBF9A6A42F001029A62184696
:1010D000FFF7DEFF10BD1B6ABDE810401B6B184711
:1010E000704708B5406AFFF7FBFF08BD7047406ACC
:1010F00008B5836A43F040038362C36A43F0040384
:10110000C362FFF7F3FF08BD002373B5019390F8A6
:101110002430012B74D001234D6880F82430062D33
:1011200002684FEA85030C6825D82B441F25566BAF
:10113000053B9D4026EA050504FA03F32B43536360
:10114000092C4FEA44038D682FD907262344D16820
:101150001E3B9E4021EA060105FA03F30B43D360D0
:10116000A4F11003012B2BD90023002280F82420A6
:10117000184602B070BD0C2D0BD82B441F25166BE2
:10118000233B9D4026EA050504FA03F32B43136332
:10119000D6E72B441F25D66A413B9D4026EA05052C
:1011A00004FA03F32B43D362CAE7072611692344E9
:1011B0009E4021EA060105FA03F30B431361CFE7D2
:1011C000104B9A4216D193681B02CDD49368102C11
:1011D00043F400039360C7D10B4B0C4A1B68B3FB6D
:1011E000F2F20A2353430193019B002BBCD0019BD5
:1011F000013BF8E7836A43F0200383620123B4E7ED
:101200000223B5E7002401403000002040420F00D7
:10121000002373B50193036804469A68D20702D588
:10122000002002B070BD9A6842F001029A60124B31
:10123000124A1B68B3FBF2F30193019BC3B9FFF79A
:101240000FFF064623689D6815F00105E8D1FFF7FA
:1012500007FF801B0228F5D9A36A84F8245043F0C5
:101260001003A362E36A012043F00103E362D8E7BD
:10127000019B013BE0E700BF3000002040420F002F
:101280002DE9D8419046404B026804469A420F46E9
:1012900002D03E498A4203D15B6813F4702F6ED1AD
:1012A00094F82430012B6CD00123204684F824309C
:1012B000FFF7AEFF064600285DD1A06A216820F442
:1012C0007060324B20F0010040F480709942A062BF
:1012D00004D12D4A536813F4702F3ED1A36A23F42E
:1012E0008013A3624B685A0505D5A36A23F44053C3
:1012F00043F48053A362A36A206A13F4805318BF97
:10130000E36A3A4618BF23F00603E362002384F839
:1013100024301F4B4C3183621E4BC3621E4B036350
:101320006FF0020341F84C3C51F8443C43F48073A5
:1013300041F8443C434600F06DF923689A6802F492
:101340006022B2F5602F9A680CBF42F4A00242F40A
:1013500080129A603046BDE8D881A36A43F48013B6
:10136000A36253685B0541BFA06A20F4405040F47B
:101370008050A062BFE7002384F82430EAE701260A
:10138000E8E70226E6E700BF00240140002801400C
:1013900093100008E3100008EF10000838B5036848
:1013A00004469A68D20701D4002038BD9A6822F01A
:1013B00001029A60FFF754FE054623689B68DB072D
:1013C000F2D5FFF74DFE401B0228F6D9A36A012093
:1013D00043F01003A362E36A43F00103E36238BD04
:1013E00070B50446002871D0836A23B9C36280F8BF
:1013F000243002F0FBFA2046FFF7D0FFA36A13F077
:10140000100FA36A64D1002862D1E16923F48853E4
:10141000626823F0020343F002030A43A168A36257
:10142000237BB1F5807F42EA430238D0012914BF03
:1014300006464FF48076257D012D07D1002B30D153
:10144000A369013B46EA433545F400662368B1F5DC
:10145000807F5D6825F4694545EA06055D609E6804
:101460001D4D05EA060545EA02059D6001D00129EA
:1014700020D1216901390905DD6A25F47005294368
:10148000D9629968154B0B409A4215D10023E3624B
:10149000A36A23F0030343F00103A36270BD0E4669
:1014A000C9E7A36A43F02003A362E36A43F00103A0
:1014B000E362CBE70021DFE7A36A23F0120343F0E6
:1014C0001003A362E36A43F00103E362012070BDED
:1014D00043F01003A362F9E7FDF7E1FFFE0E1FFFE3
:1014E000074A0002D36800F4E06023F4E0631B04C1
:1014F0001B0C43F0BF6343F400330343D3607047D6
:1015000000ED00E0174B30B5DC68C4F30224C4F1F1
:101510000703251D042B28BF0423062D4FF00105CA
:1015200098BF002405FA03F303F1FF3388BF033C9F
:101530001940A14005FA04F4013C2240002842EA87
:1015400001024FEA0212A9BF00F16040064BD2B27D
:1015500000F56140BBBF00F00F00D2B280F800235D
:101560001A5430BD00ED00E014ED00E0002808DB67
:101570000123420900F01F0003FA00F0014B43F879
:101580002200704700E100E00138B0F1807F0AD20C
:10159000F021064B064A586082F8231000200722EB
:1015A00098601A6070470120704700BF10E000E0AB
:1015B00000ED00E010B530B314220168134B8468CD
:1015C0000B44B3FBF2F39B000364114B0A68C36343
:1015D000436822F47F522343C46822F0300223433D
:1015E000046923434469234384692343C46923432F
:1015F00013430B600122002380F82120836380F8CD
:101600002030184610BD012010BD00BFF8FFFDBFFF
:1016100000000240F0B590F82040012C35D00124A4
:1016200090F8215080F82040A5424FF000064FF07E
:10163000020428D180F82140046886632668076C7C
:1016400026F001062660C66BBD4075606360436886
:101650000568102BC36A0BBFA260A160E160E26065
:101660004BB1236843F00E0323602B68002043F046
:1016700001032B60F0BD236823F00403236023687B
:1016800043F00A03F0E780F820600220F0BD00007C
:1016900090F8213010B5022B03D00423836301207E
:1016A00010BD03681A6822F00E021A601A6822F050
:1016B00001021A60184A93421FD0143293421ED07E
:1016C000143293421DD0143293421DD014329342EF
:1016D0001DD0143293420CBF4FF480134FF080732F
:1016E0000E4A00245360012380F82130436B80F8B8
:1016F00020407BB19847204610BD0123F0E710231E
:10170000EEE74FF48073EBE74FF48053E8E74FF4D4
:101710008033E5E7184610BD080002400000024093
:1017200070B40425C66B026C34680368954025428A
:10173000196832D04D0730D51A6896065EBF1A6810
:1017400022F004021A603E4A934219D014329342A6
:1017500018D01432934217D01432934217D0143257
:10176000934217D0143293420CBF4FF480034FF0D2
:101770008063344A5360C36A002B5ED070BC184744
:101780000423F6E74023F4E74FF48063F1E74FF4D6
:101790008043EEE74FF48023EBE702259540254296
:1017A00035D08D0733D51A68940606D41A6822F00E
:1017B0000A021A60012280F82120214A934219D09E
:1017C0001432934218D01432934217D014329342F9
:1017D00017D01432934217D0143293420CBF4FF4F7
:1017E00000134FF00073174A5360002380F8203035
:1017F000836AC1E70223F6E72023F4E74FF400737E
:10180000F1E74FF40053EEE74FF40033EBE7082520
:101810009540254211D009070FD5196821F00E0116
:101820001960012303FA02F27260836380F82130A9
:10183000002380F82030036B9EE770BC704700BF28
:1018400008000240000002402DE9F74F0024264620
:10185000664BDFF8A8E1DFF8A8C10A6832FA06F59E
:1018600002D103B0BDE8F08F4FF0010808FA06F886
:1018700002EA080290457FD14D68122D00F0AA803F
:1018800000F28380022D00F0A28077D8002D00F0B6
:101890008980012D00F099804FF00F09FF2A93BF36
:1018A000824606F18045083DD0F800B092BFB500F1
:1018B000D0F804B0AD0009FA05F82BEA080804FADC
:1018C00005F588BF00F1040A48EA0505CAF800508A
:1018D000D1F804A01AF0805F4ED0454D444FAD6959
:1018E00026F0030845F00105BD61BD6908F1804897
:1018F00005F00105019508F5803806F0030B019D00
:101900004FEA8B0BD8F8085009FA0BF925EA0909B8
:10191000384DA84263D005F58065A84261D005F531
:101920008065A8425FD005F58065A8420CBF0325FD
:10193000042505FA0BF545EA0905C8F808501D68A5
:101940001AF4803F14BF154395431D605D681AF477
:10195000003F14BF154395435D609D681AF4801FD6
:1019600014BF154395439D60DD681AF4001F14BF32
:101970002A4325EA0202DA6001366EE7032D22D0FF
:10198000112D89D1CC68043486E71B4FBD4209D0A4
:1019900012D8DFF870904D4504D009F580394D45D7
:1019A0007FF47AAF8C68C4B1012C0CBFC0F81080F2
:1019B000C0F8148008246FE77545F3D06545F1D071
:1019C000DFF84490EBE7002466E7CC6864E7CC6876
:1019D000083461E7CC680C345EE704245CE700253A
:1019E000A7E70125A5E70225A3E700BF0004014002
:1019F00000100240000801400000211000003110DA
:101A000000003210000011100000221001680022B6
:101A10004B6913F4806310D06FF480634B61202313
:101A2000026380F83D3080F83E20036C80F83C2053
:101A300043F00403036401207047184670472DE902
:101A4000F843044617469946C1F307488EB2256805
:101A5000B8F1010F0CBF6B69AB6936EA030314BF21
:101A60000120002008B9BDE8F8836B695A0516D536
:101A70002B68202243F400732B606FF480636B614A
:101A80000023236384F83D2084F83E30226C42F02A
:101A90000402226484F83C300120BDE8F8837B1CFA
:101AA000D5D0FFF7DDFAA0EB0900874201D3002F64
:101AB000CDD100232022236384F83D2084F83E30DA
:101AC000226C42F02002E4E770B504460D4616464B
:101AD00023685B695B0701D5002070BD2046FFF7D6
:101AE00095FFA8B96A1CF3D0FFF7BAFA801B8542AC
:101AF00001D3002DECD100232022236384F83D2064
:101B000084F83E30226C84F83C3042F0200222649B
:101B1000012070BD70B504460D4616462068436925
:101B200013F0400301D0002070BD4269D2060ED5EB
:101B30006FF0100242612022236384F83D2084F874
:101B40003E30226C226484F83C30012070BDFFF7E7
:101B500087FA801BA84201D8002DDFD10023202264
:101B6000236384F83D2084F83E30226C42F020024A
:101B7000E8E72DE9F843044690461F46089EC1F366
:101B800007498DB22368B9F1010F0CBF5B699B69EE
:101B900035EA03030CBF01230023434502D0002094
:101BA000BDE8F8837B1CEDD0FFF75AFA801B874213
:101BB00001D3002FE6D100232022236384F83D20A7
:101BC00084F83E30226C84F83C3042F020022264DB
:101BD0000120BDE8F88370B504460D46164623681B
:101BE0005B691B0601D5002070BD2046FFF70EFF84
:101BF000A8B96A1CF3D0FFF733FA801B854201D3E2
:101C0000002DECD100232022236384F83D2084F8AA
:101C10003E30226C84F83C3042F0200222640120E5
:101C200070BD000070B5044608B9012070BD90F881
:101C30003D3003F0FF021BB980F83C2001F07AFF31
:101C40002423226884F83D30136823F001031360D5
:101C500000F0F4FD6568414B9D424DD8404B9842E1
:101C6000E3D940492268B0FBF1F1536823F03F0308
:101C70000B435360136A23F03F0301311943116290
:101C8000D169364B21F44F419D4221F0FF0100F113
:101C9000FF3048D86D00B0FBF5F00130C0F30B0306
:101CA000042B38BF04230B43D3611168206AE36916
:101CB00021F0C00103430B4313609168E06823697E
:101CC00021F40341034321F0FF010B439360D168EA
:101CD000A069636921F0FF0103430B43D3601368DC
:101CE000002043F0010313602023206484F83D307A
:101CF000206384F83E0070BD1B4B984295D9194E65
:101D00004FF49671B0FBF6F622687143536823F0E6
:101D10003F0333434FF47A765360136AB1FBF6F115
:101D200023F03F03A9E7A36853B905EB4503B0FBD4
:101D3000F3F0431CC3F30B036BB143F40043B2E76E
:101D400019236B43B0FBF3F0431CC3F30B0313B134
:101D500043F44043A7E70123A5E700BFA0860100A5
:101D60007F841E0040420F00FF083D002DE9FF4127
:101D700004461F460D469046FFF772F994F83D3031
:101D80000646202B04D00225284604B0BDE8F08189
:101D900000901923012258492046FFF7EAFE002847
:101DA000F1D194F83C30012BEDD0012384F83C3084
:101DB00023681A68D2075EBF1A6842F001021A60EF
:101DC0001A6822F400621A60212284F83D20102251
:101DD00084F83E20002222646785628DC4F8248046
:101DE0002285464AE262E26A082A04D0012A02D029
:101DF00012F5803F04D11A6842F480721A6002E042
:101E0000226B122AF7D000960A9B00224FF0011194
:101E10002046FFF7AEFE08B10125B5E72369226829
:101E2000B3F5804F13D105F0FE05156133460A9ACC
:101E300033492046FFF703FE05460028ECD123680E
:101E400003905A6903929B690393039B44E0EB114F
:101E500003F0060343F0F00313612A4933460A9A5C
:101E60002046FFF7ECFD0028D6D12368EDB21D61B6
:101E7000DCE732460A992046FFF7ADFE40B1236CFD
:101E8000042B01BF2268136843F400731360C3E797
:101E9000636A20681A4612F8011B01616262628D52
:101EA000013A92B26285228D4769511E89B27F073D
:101EB00021850AD549B15978023301616362638D86
:101EC000023A013B9BB26385228532460A9920463D
:101ED000FFF7FAFD0028D2D1238D002BC9D121684C
:101EE0000A6842F400720A60202284F83C3084F8C8
:101EF0003D2084F83E3047E7020010000000FFFF5D
:101F000002000100080001002DE9F043044689B0F9
:101F100098460F469146109EFFF7A2F894F83D3080
:101F20000546202B04D00227384609B0BDE8F083CF
:101F30000090192301229C492046FFF71AFE002831
:101F4000F1D194F83C30012BEDD0012384F83C30E2
:101F500023681A68D0075EBF1A6842F001021A604F
:101F60001A6822F400621A60222284F83D201022AE
:101F700084F83E2000222264A4F82A80628DC4F8EE
:101F800024902285894AE262E26A1968082A41F4AB
:101F90008061196004D0012A02D012F5803F04D17B
:101FA0001A6842F480721A6002E0226B112AF7D09C
:101FB0000095334600224FF001112046FFF7D9FD6E
:101FC00008B10127B0E72369B3F5804F236843D1F7
:101FD00047F00107FFB21F612B4632467449204685
:101FE000FFF72DFD07460028EBD1228D2368002A3C
:101FF00066D0012A77D11A6822F480621A6072B61C
:10200000236804975A6904929A690492049A1A6898
:1020100042F400721A6062B6DFF89C81238D002BB7
:1020200058D0032B00F2CA80012B78D12A463146C2
:102030002046FFF76FFD0028C3D12268636A12694A
:102040001A70636A01336362238D013B2385638DBC
:10205000013B9BB26385E1E74FEAE71808F0060809
:1020600048F0F0021A6153492B4632462046FFF7EA
:10207000E6FC0028A5D12368FFB21F6132462B463B
:102080004B492046FFF7DBFC0246002899D1236824
:10209000079059692046079199690791079919682E
:1020A00041F480711960009533464FF00111FFF73C
:1020B00060FD002885D1226848F0F10313618BE7A9
:1020C00003975A6903929A690392039A1A6842F431
:1020D00000721A60202384F83D30002384F83E30DB
:1020E00084F83C3020E7022A1A680ED142F40062DC
:1020F0001A6072B6236805975A6905929A69059223
:10210000059A1A6822F4806284E742F480621A60B9
:1021100006975A6906929B690693069B7CE7022BF9
:10212000009533464FF000024146204619D1FFF793
:1021300020FD00287FF445AF72B623681A6842F488
:1021400000721A601B69626A1370636A013363620A
:10215000238D013B2385638D013B9BB2638562B672
:102160006BE7FFF706FD024600287FF42AAF2168DF
:102170000B6823F480630B6072B62168636A096997
:1021800020461970636A009501336362238D4146CE
:10219000013B2385638D013B9BB263853346FFF78B
:1021A000E8FC0028C9D00CE7020010000000FFFF87
:1021B0000200010008000100040001002A46314627
:1021C0002046FFF7A7FC00287FF4FBAE2268636A75
:1021D00012691A70626A531C6362238D013B238566
:1021E000638D013B9BB263852368596949077FF57D
:1021F00015AF1B69537024E72DE9F04F044685B0F5
:10220000984689469246FEF72BFF94F83D300546E6
:10221000202B03D0022005B0BDE8F08F00901923D9
:10222000012249492046FFF7A4FC0028F2D194F886
:102230003C30012BEED0012384F83C302368012789
:102240001A68DFF804B1D20758BF1A6809F0FE090E
:102250005CBF42F001021A601A6822F400621A6040
:10226000242384F83D3000232364A3F58033E36204
:1022700022684FF001111368204643F48073136005
:10228000009543460022FFF774FC08B10120C2E725
:102290002368A026C3F81090FEF7E2FE05462368E7
:1022A0005A695B69C2F34002C3F3802394F83D107E
:1022B000A02901D002B903B32026236884F83D6029
:1022C0005A6912F0020F1A6842F400721A6026D09E
:1022D000002203925A691C4903929B6901220393CD
:1022E000039B009519232046FFF743FC0028CDD11E
:1022F00084F83D6084F83C008DE7FEF7B1FE401B9A
:10230000804502D3B8F1000F01D184F83D60236805
:102310005A695B69C2F34002C3F38023C6E76FF4D6
:10232000806259465A612046009519230122FFF721
:1023300020FC0028AAD10137574599D384F83D6085
:1023400084F83C00A2E700BF020010002DE9F34131
:10235000054608B901203CE00368DB0710D42B6870
:102360009F075DD42B68190700F194802B685A07EA
:1023700000F1BE80E869002840F02C81002028E0B0
:102380008F4C636803F00C03042B07D0636803F0E1
:102390000C03082B09D16368DE0306D523689C0370
:1023A000DDD56B68002BDAD1D4E76B68B3F5803FDD
:1023B00012D1236843F480332360FEF751FE0646B2
:1023C00023689803CBD4FEF74BFE801B6428F7D913
:1023D000032002B0BDE8F0819BB9236823F4803369
:1023E0002360236823F480232360FEF739FE06462A
:1023F00023689903B3D5FEF733FE801B6428F7D911
:10240000E6E7B3F5A02F236803D143F480232360CC
:10241000CFE723F480332360236823F48023CBE7C2
:10242000674C636813F00C0F07D0636803F00C036C
:10243000082B10D16368DA030DD423689B0702D5FB
:102440002B69012B86D123686A6923F0F80343EADC
:10245000C203236086E72A695A4B6AB101221A60D7
:10246000FEF7FEFD064623689F07ECD4FEF7F8FD55
:10247000801B0228F7D9ABE71A60FEF7F1FD06468C
:10248000236898077FF56EAFFEF7EAFD801B0228F0
:10249000F6D99DE7AA694A4C4B4BDAB101221A6082
:1024A000FEF7DEFD0646636A9B070DD54FF4FA5230
:1024B000464B1B68B3FBF2F3019300BF019B5A1E0E
:1024C0000192002BF9D151E7FEF7CAFD801B0228CB
:1024D000E9D97DE71A60FEF7C3FD0646636A9F07E8
:1024E0007FF544AFFEF7BCFD801B0228F6D96FE7ED
:1024F000334CE369D80024D40127E36943F08053C7
:10250000E361E36903F080530093009B304E33682E
:10251000D90518D5EB68012B26D1236A43F00103B6
:102520002362FEF79DFD41F288368046236A9B07B1
:102530003FD5002F3FF41EAFE36923F08053E361E2
:1025400018E70027E2E7336843F480733360FEF74F
:1025500087FD80463368DA05DCD4FEF781FDA0EB09
:1025600008006428F6D933E7ABB9236A41F288380A
:1025700023F001032362236A23F004032362FEF79E
:102580006FFD0646236A9807D3D5FEF769FD801BC9
:102590004045F7D91CE7052B236A03D143F0040318
:1025A0002362BAE723F001032362236A23F00403C2
:1025B000B6E7FEF755FDA0EB0800B042B6D907E735
:1025C00000100240000042428004424230000020DD
:1025D000007000402A4B5A681C4602F00C02082A80
:1025E0003DD00023274E022833602BD1FEF738FD63
:1025F0000746236899011FD42B6AB3F5803F05D1A4
:102600006268A96822F400320A436260696A6268FB
:102610000B4322F474121343636001233360FEF70B
:102620001FFD054623689A013FF5A8AEFEF718FD89
:10263000401B0228F6D9CBE6FEF712FDC01B02288C
:10264000D7D9C5E6FEF70CFD054623689B017FF54B
:1026500095AEFEF705FD401B0228F6D9B8E6012825
:102660003FF4B7AE58682B6A00F480329A427FF488
:1026700071AE6B6A00F47010C01A18BF0120A8E692
:10268000001002406000424230B5194B87B002ACE6
:1026900003F11005224618685968083303C2AB429B
:1026A0001446F7D101238DF80430022311498DF827
:1026B00005304B6803F00C02082A17D1C3F383429C
:1026C00006A80244DB0312F8102C0CD54B680A480C
:1026D000C3F34043504306AA134413F8143CB0FB21
:1026E000F3F007B030BD05485043FAE70248F8E779
:1026F000744E00080010024000127A0000093D00EC
:102700002DE9F0410D46044610B90120BDE8F081E5
:10271000454A136803F007038B4229D321688E07CB
:1027200031D4CA0744D4404A136803F007039D42DA
:1027300067D322683D4D12F0040F6ED1130706D502
:102740006B68226923F4605343EAC2036B60FFF7AE
:102750009BFF6B68364AC3F30313D35CD840354BF9
:102760001860354B1868FEF739FC0020BDE8F08191
:10277000136823F007030B431360136803F0070388
:102780009942C2D1CAE7294B11F0040F1EBF5A6803
:1027900042F4E0625A60080742BF5A6842F460524D
:1027A0005A605A68A06822F0F00202435A60B8E703
:1027B00062681E4E012A33681BD113F4003FA4D077
:1027C000736841F2883823F0030313437360FEF704
:1027D00047FC07467368626803F00C03B3EB820F93
:1027E000A1D0FEF73DFCC01B4045F3D90320BDE856
:1027F000F081022A02D113F0007FE0E713F0020F0C
:10280000DDE7136823F007032B431360136803F01D
:1028100007039D427FF479AF8BE76B68E16823F48F
:10282000E0630B436B6089E7002002400010024028
:102830006B4F00083000002004000020044B054AC4
:102840005B68C3F30223D35C034A1068D840704727
:10285000001002407B4F000830000020044B054A66
:102860005B68C3F3C223D35C034A1068D840704747
:10287000001002407B4F00083000002003682DE963
:10288000F341D907054620D5354CE369DA0032D447
:102890000127E36943F08053E361E36903F0805368
:1028A0000193019B2F4E3368DB0526D5236A13F471
:1028B000407336D1236A6A6823F44073134323625A
:1028C0001FB1E36923F08053E3612868830706D5CD
:1028D000234AA968536823F440430B43536010F024
:1028E00010001BD01E4AE9685368002023F48003BF
:1028F0000B43536012E00027D4E7336843F480733E
:102900003360FEF7ADFB80463368D805CED4FEF7C2
:10291000A7FBA0EB08006428F6D9032002B0BDE8AD
:10292000F0816A6802F440729342C3D001200E4ADB
:10293000236A1060002023F4407110602162D907DF
:10294000B8D5FEF78DFB41F288380646236A9A0710
:10295000B0D4FEF785FB801B4045F7D9DDE700BF0B
:10296000001002400070004040044242036A70B50B
:1029700023F001030362036A446882690D6822F050
:1029800073022A438D6823F002032B430A4DA842A9
:102990000BD1CD6823F008032B438E694D6924F4D5
:1029A0004074354323F004032C43446082614A6839
:1029B0004263036270BD00BF002C0140036A70B522
:1029C00023F480730362036A4468C2690D6822F0CD
:1029D00073022A438D6823F4007343EA05230B4DE9
:1029E000A8420DD1CD6823F4006343EA05238E6924
:1029F0004D6924F44054354323F4806344EA0514BC
:102A00004460C2614A68C263036270BD002C014029
:102A1000036A30B523F480530362036A4468C269D1
:102A20000D6822F4E64242EA05228D6823F4005341
:102A300043EA0533064DA84202BF4D6924F48044A1
:102A400044EA85144460C2614A680264036230BD8E
:102A5000002C0140022380F83D3003689A6802F0A0
:102A60000702062A1EBF1A6842F001021A600123FB
:102A700080F83D300020704703680020DA6842F09B
:102A80000102DA609A6802F00702062A1EBF1A687D
:102A900042F001021A6070477047704770477047F4
:102AA00070477047036810B51A69044691070ED540
:102AB000DA6892070BD56FF002021A6101229B6956
:102AC00002779B0777D0FFF7EAFF0023237723687D
:102AD0001A69500710D5DA6851070DD56FF0040256
:102AE0001A6102229B69227713F4407F204668D046
:102AF000FFF7D5FF0023237723681A6912070FD544
:102B0000DA6810070CD56FF008021A610422DB693D
:102B10002277990720465AD0FFF7C1FF0023237779
:102B200023681A69D20610D5DA68D0060DD56FF081
:102B300010021A610822DB69227713F4407F2046D5
:102B40004BD0FFF7ACFF0023237723681A69D10726
:102B500008D5DA68D20705D56FF0010220461A6160
:102B6000FFF79BFF23681A69100608D5DA6811067B
:102B700005D56FF0800220461A6100F016FA23682E
:102B80001A69520608D5DA68500605D56FF040027A
:102B900020461A61FFF785FF23681A69910622D53E
:102BA000DA6892061FD56FF020022046BDE810407B
:102BB0001A6100F0F9B9FFF771FF2046FFF770FFC7
:102BC00083E7FFF76BFF2046FFF76AFF92E7FFF707
:102BD00065FF2046FFF764FFA0E7FFF75FFF204691
:102BE000FFF75EFFAFE710BD1A4A036890420AD0B4
:102BF000B0F1804F07D0A2F59432904203D002F595
:102C00008062904215D14A6823F070031343114A41
:102C100090420AD0B0F1804F07D0A2F59432904292
:102C200003D002F58062904203D1CA6823F4407356
:102C300013434A6923F08003134303608B68C36224
:102C40000B688362034B984204BF0B690363012343
:102C500043617047002C014010B50446A0B190F8C4
:102C60003D3003F0FF021BB980F83C2001F0A8FCC6
:102C70000223206884F83D30211DFFF7B5FF0123B2
:102C8000002084F83D3010BD012010BD10B5044671
:102C9000A0B190F83D3003F0FF021BB980F83C2052
:102CA000FFF7FAFE0223206884F83D30211DFFF76C
:102CB0009BFF0123002084F83D3010BD012010BD92
:102CC000036A70B523F010030362036A44688269E3
:102CD0000D6822F4E64242EA05228D6823F02003C3
:102CE00043EA05130B4DA8420DD1CD6823F08003B4
:102CF00043EA05138E694D6924F44064354323F09B
:102D0000400344EA8504446082614A688263036246
:102D100070BD00BF002C014038B590F83C3004462F
:102D2000012B4FF0020025D0012384F83D0084F8E8
:102D30003C300C2A18D8DFE802F0071717171E17C7
:102D400017172F17171740002068FFF70FFE23688B
:102D500009699A6942F008029A619A6922F00402AC
:102D60009A619A690A439A610123002084F83D30F0
:102D700084F83C0038BD2068FFF7A2FF236809698A
:102D80009A6942F400629A619A6922F480629A61B7
:102D90009A6942EA0122E6E72068FFF70FFE2368FE
:102DA0000969DA6942F00802DA61DA6922F004029C
:102DB000DA61DA690A43DA61D6E72068FFF728FEAC
:102DC00023680969DA6942F40062DA61DA6922F497
:102DD0008062DA61DA6942EA0122ECE710B58468C0
:102DE0000A4324F47F4442EA03232343836010BD53
:102DF00090F83C3070B5012B04464FF0020019D01A
:102E0000012384F83D00206884F83C30836823F473
:102E10007F4323F0770383600B68402B65D015D880
:102E2000102B0CD007D853B10123002084F83D307B
:102E300084F83C0070BD202B01D0302BF4D1826887
:102E400043F0070322F0700213431AE0602B34D0E2
:102E500019D8502BE8D14A68CE68016A056A21F07A
:102E60000A0125F00105056283690A4323F0F00396
:102E700043EA061383610262836823F0700343F020
:102E800057038360D0E7702B0CD0B3F5005FCBD134
:102E9000CB684A688968FFF7A1FF2268936843F40A
:102EA000804308E0CB684A688968FFF797FF22688B
:102EB000936843F077039360B6E74D68CE68016A84
:102EC00021F0100101628269036A22F4704223F04A
:102ED000A00343EA051342EA063282610362836873
:102EE00023F0700343F06703CBE74A68CE68016ABA
:102EF000056A21F00A0125F00105056283690A438C
:102F000023F0F00343EA061383610262836823F02F
:102F1000700343F04703B4E710B50124036A01F0DE
:102F20001F018C4023EA04030362036A8A401A43A8
:102F3000026210BD10B5044601220068FFF7ECFFE5
:102F40002368094A0020934202BF5A6C42F40042AF
:102F50005A649A6802F00702062A1EBF1A6842F0F5
:102F600001021A6010BD00BF002C014090F83C30F7
:102F700030B5012B4FF0020314D0046880F83D30C7
:102F80006268A3680D68496822F0700223F080032C
:102F90000B432A436260A360012380F83D30002385
:102FA00080F83C30184630BD704770470368DA68D7
:102FB00022F49072DA605A6922F001025A612023E9
:102FC00080F83A307047000038B505460368C1689C
:102FD0001A69192422F440520A431A61826800696E
:102FE000D9680243686921F4B05121F00C01024311
:102FF0000A43DA605A69A96922F440720A435A61A5
:103000000D4A934214D1FFF729FC60436C68642297
:10301000A400B0FBF4F0B0FBF2F402FB14031B01BC
:103020003233B3FBF2F3296803EB04138B6038BD32
:10303000FFF704FCE9E700BF00380140F8B504469B
:103040000E4617461D4621680B6836EA030301D178
:103050000020F8BD6B1CF7D095B923680320DA680F
:1030600022F4D072DA605A6922F001025A612023F8
:1030700084F8393084F83A30002384F83830F8BDC9
:10308000FDF7EEFFC01B8542DDD2E6E710B5044632
:1030900040B390F8393003F0FF021BB980F83820B4
:1030A00001F056FB2423226884F83930D368204687
:1030B00023F40053D360FFF787FF236800201A69C9
:1030C00022F490421A615A6922F02A025A61DA689F
:1030D00042F40052DA602023E06384F8393084F847
:1030E0003A3010BD012010BD2DE9F0411F4690F887
:1030F00039300446202B0D4690464ED1002949D048
:10310000002A47D090F83830012B46D0012380F8B0
:1031100038300023C363212380F83930FDF7A0FF46
:103120000646A4F82480A4F82680E38C9BB26BB9F1
:103130003B46324640212046FFF780FFA8B92023B6
:1031400084F8380084F83930BDE8F081E38C3246E9
:10315000013B9BB2E384A3688021B3F5805F2046E6
:103160003B460ED1FFF76AFF10B10320BDE8F081A6
:103170002B882268C3F308035360236943B90235DF
:10318000D3E7FFF75BFF0028EFD123682A785A6066
:103190000135CAE70120BDE8F0810220BDE8F081D9
:1031A0002DE9F0411F4690F83A300446202B0D4699
:1031B000904651D100294CD0002A4AD090F838309E
:1031C000012B49D0012380F838300023C363222328
:1031D00080F83A30FDF744FF0646A4F82C80A4F8A6
:1031E0002E80E08D80B230B9202384F8380084F836
:1031F0003A30BDE8F081E38D3246013B9BB2E38576
:10320000A3682021B3F5805F20463B4612D1FFF72B
:1032100015FF10B10320BDE8F081236822695B68C7
:1032200022B9C3F3080325F8023BDAE7DBB225F83D
:10323000013BD6E7FFF702FF0028EBD123682169A5
:103240006A1C5B6811B92B701546CAE703F07F034F
:10325000F9E70120BDE8F0810220BDE8F081704768
:10326000704790F83A3010B5222B36D18368016947
:10327000B3F5805F0268836A23D15268E9B9C2F36B
:10328000080223F8022B8362C48D013CA4B2C485DA
:103290008CB90368DA6822F02002DA60DA6822F476
:1032A0008072DA605A6922F001025A61202380F8A4
:1032B0003A30FFF7D5FF002010BDD2B223F8012B22
:1032C000E1E721B9591C526881621A70DCE7526843
:1032D000591C816202F07F02F7E7022010BD70479F
:1032E000036870B51A6804461607D9685D6907D186
:1032F00096065AD58D0658D5BDE87040FFF7B1BF88
:1033000015F0010502D111F4907F4ED0D30705D5F9
:10331000CE0542BFE36B43F00103E363500704D5DE
:103320001DB1E36B43F00203E363930704D51DB1C2
:10333000E36B43F00403E363160704D51DB1E36BAD
:1033400043F00803E363E36B002B66D0950604D5D6
:10335000880602D52046FFF784FF236820465D6972
:10336000E26B110702D415F040051AD0FFF71EFEDC
:1033700023685A69520610D55A69606B22F04002E0
:103380005A6150B1254B4363FEF782F9002844D0BF
:10339000606BBDE87040436B18472046FFF79FFF06
:1033A00070BDFFF79CFFE56370BD160627D50D06BF
:1033B00025D594F83920212A2FD1A268B2F5805F53
:1033C000226A17D11188C1F308015960216979B9BE
:1033D00002322262E28C013A92B2E284EAB9DA68FD
:1033E00022F08002DA60DA6842F04002DA6070BDF2
:1033F0000132EEE7511C216212785A60EAE750066A
:103400000BD54A0609D5DA68204622F04002DA6078
:10341000202384F83930FFF722FF70BD21340008E3
:1034200008B50023406AC385C384FFF758FF08BD71
:10343000074AD36813F0807309D1D16841F08071D5
:10344000D160044A5360136843F00103136070476E
:10345000F0ED00E0001000E0002373B505460E46D5
:1034600000240193AC420BDB2846FDF757FB019C7F
:1034700001462046FDF75AFC0190019802B070BD4C
:10348000019856F82410FDF795FA01340190E9E708
:1034900000232DE9F34105460E461746002401930B
:1034A000AC420CDB2846FDF739FB019C0146204667
:1034B000FDF73CFC0190019802B0BDE8F081DDF819
:1034C000048057F8241056F82400FDF77BFB414692
:1034D000FDF770FA01340190E2E70023F7B50546E5
:1034E0000E4600240193AC421EDB31462846FFF70E
:1034F000B3FF01902846FDF711FB009C01462046D2
:10350000FDF714FC019E019F044639463046FDF745
:1035100059FB01462046FDF74BFA00900120FDF7CC
:10352000A5FD009803B0F0BD56F82410009F084692
:10353000FDF748FB3946FDF73DFA00900120FDF705
:1035400095FD0134CFE7F0B51F46002387B0059302
:1035500004460D461646FFF77FFF3146029020468F
:10356000FFF77AFF3246039029462046FFF790FF87
:10357000294604902046FFF7B0FF0590049D02986D
:103580000399FDF71FFB059C01462846FDF710FA3D
:103590002146FDF7CBFB0190039C01980299FDF7B2
:1035A00011FB01462046FDF703FA0090009B019AAB
:1035B0003B600C9B01201A60FDF758FD07B0F0BD81
:1035C000F8B5054600240026AC4214DB31463046EF
:1035D000FDF7F0F904462846FDF7A0FA014620461B
:1035E000FDF7A4FB0446681CFDF798FA0146204647
:1035F000FDF79CFBF8BD00F0CFFB074601342046E9
:10360000FDF78CFA3946FDF7DDFA01463046FDF745
:10361000D1F90646D8E7096810B501601268426022
:103620001B688360029B1B68C360002303614361C6
:1036300010BD10B50446084661616168FDF7C2FA25
:103640000146E069FDF7B6F9E06110BD10B504462A
:1036500008466161A168FDF7B5FA216AFDF7A8F98E
:10366000206210BD38B50446006861610D46FDF763
:10367000A9FA2946A0612046FFF7E8FF294620461F
:10368000FFF7D7FFE169A069FDF794F9216AFDF71B
:1036900091F9206138BD7FB5192305464FF47A763C
:1036A0000C788DF80C308DF80D20A4B20096022312
:1036B00003AA21462846FEF759FB0028F6D104B09C
:1036C00070BD1C232DE9F04307460C4616464FF407
:1036D0007A7985B00D780DF1100808F8013DADB28A
:1036E000CDF800900123424629463846FEF73EFBBE
:1036F0000028F5D14FF47A78CDF8008001230DF140
:103700000E0229463846FEF7FFFB0028F4D14FF49D
:103710007A789DF80E3023F0180343EAC6038DF83B
:103720000E30CDF8008001230DF10E0229463846F7
:10373000FEF71CFB0028F4D1032E06D8DFE806F0C4
:1037400002090C0F4FF06253A360002005B0BDE8E2
:10375000F0834FF06453F7E74FF06653F4E74FF010
:103760006853F1E71B232DE9F04307460C46164644
:103770004FF47A7985B00D780DF1100808F8013D05
:10378000ADB2CDF800900123424629463846FEF7F7
:10379000EDFA0028F5D14FF47A78CDF800800123B6
:1037A0000DF10E0229463846FEF7AEFB0028F4D193
:1037B0004FF47A789DF80E3023F0180343EAC603DD
:1037C0008DF80E30CDF8008001230DF10E02294650
:1037D0003846FEF7CBFA0028F4D1032E05D8DFE8EF
:1037E00006F002080A0C064B6360002005B0BDE835
:1037F000F083044BF8E7044BF6E7044BF4E700BF13
:103800002D23FA3B2D237A3C90C1F93C90C1793DA0
:103810002DE9FF419846752342F0D00294B20A7018
:103820000E468DF80A300222052321460546FEF792
:10383000E3FC18B1012004B0BDE8F0814FF47A77C1
:10384000012300970DF10A0221462846FEF78EFA61
:103850000028EFD1009701230DF10B0221462846E5
:10386000FEF752FB0028E5D19DF80B30682B20D1E4
:103870006B238DF80D008DF80C3021460097022344
:1038800003AA2846FEF772FA04460028D2D107227E
:1038900031462846FFF7FFFE424631462846FFF7ED
:1038A00010FF9DF8282031462846FFF75BFF204691
:1038B000C1E70320BFE73B232DE9F04106460C4654
:1038C0004FF47A7886B006AD0F7805F8093DCDF84B
:1038D000008001232A4639463046FEF747FA002881
:1038E000F5D14FF47A750095062304AA394630467F
:1038F000FEF70AFB0028F6D19DF810209DF8113044
:1039000043EA0223A3819DF812209DF8133043EA75
:103910000223E3819DF814209DF8153043EA022329
:10392000238206B0BDE8F08143232DE9F04106462D
:103930000C464FF47A7886B006AD0F7805F8093D4D
:10394000CDF8008001232A4639463046FEF70EFAAC
:103950000028F5D14FF47A750095062304AA39465C
:103960003046FEF7D1FA0028F6D19DF810209DF8D8
:10397000113043EA022363829DF812209DF8133030
:1039800043EA0223A3829DF814209DF8153043EAF0
:103990000223E38206B0BDE8F08100001FB51148A4
:1039A000114A0023012402604FF460220193029324
:1039B0000393836004730375C26143600461FDF780
:1039C0000FFD08B100F048FD072301A90548019447
:1039D00002940393FDF798FB08B100F03DFD04B09D
:1039E00010BD00BF600200200024014030B5054634
:1039F00087B01022002102A800F058FF2A681C4B53
:103A00009A4233D103F56C439A691A4842F4007222
:103A10009A619A6902A902F400720092009A9A6966
:103A2000154C42F004029A619B6903F00403019370
:103A3000019B0223029303230393FDF705FF8022DA
:103A4000E2604FF480720D4B226123604FF480627C
:103A5000002320466360A3606261A361E361FDF718
:103A6000A9FD08B100F0F8FC2C62656207B030BD1A
:103A7000002401400008014090020020080002409C
:103A80000A4B07B55A690B2042F001025A61002225
:103A90005B69114603F001030193019BFDF732FDC1
:103AA0000B20FDF763FD03B05DF804FB001002403E
:103AB0000F4B84B09A6942F020029A619A6902F031
:103AC00020020192019A9A6942F004029A619A696D
:103AD00002F004020292029A9A6942F008029A6184
:103AE0009B6903F008030393039B04B0704700BF76
:103AF0000010024008B50C480C4BDFF834E04FF4DE
:103B0000804280E80840002302618360C360436113
:103B10008361C3610362FEF785F818B1BDE8084010
:103B200000F09ABC08BD00BFD40200200054004041
:103B3000A086010010B5044686B01022002102A81C
:103B400000F0B4FE2268154B9A4224D1144C02A90D
:103B5000A369144843F00803A361A36903F00803B1
:103B60000093009B4FF440730293122303930323AB
:103B70000593FDF769FE0C4A536843F0E06343F098
:103B800002035360E36943F40013E361E36903F460
:103B900000130193019B06B010BD00BF005400400C
:103BA00000100240000C014000000140282230B506
:103BB00095B00DEB0200002100F078FE14220021E8
:103BC0000DEB020000F072FE0021102201A800F0AF
:103BD0006DFE4FF48033012202240B9312934FF4B5
:103BE000C0130AA80A920E9213931194FEF7AEFB2B
:103BF0000F2305934FF48063002508934FF4A063CF
:103C0000214605A8099306940795FEF779FD01A8BA
:103C100001940395FEF732FE15B030BD024B1B68D0
:103C200058631920FDF722BA200500201FB5019026
:103C300001981449FDF778F900B301981249FDF78E
:103C400069F9D8B10023ADF80E30104B019819680E
:103C5000FCF7B8FF0E4B1968FCF7ACFEFDF79EF9B8
:103C600080B2ADF80E00BDF80E0080B2FFF7D6FFAF
:103C7000BDF80E0080B205B05DF804FB4FF0FF30D8
:103C8000F9E700BF000020C2000020420C00002025
:103C90000800002010B510460024831ADBB29942B8
:103CA00000D810BD00F8014BF7E700002DE9F04700
:103CB0004FF07C5982B002AFADF5227D02AEADF57A
:103CC000227D02AD1F482C1F05F51F7844F8040F14
:103CD0004946FCF76FFEA045F8D100244FF00008DC
:103CE000DFF864A0DFF8709055F82400FFF79EFF1E
:103CF000013013D0012214491448FDF7C1FABAF873
:103D00000000FCF789FB42464B46FCF7EBFBFCF757
:103D1000FBFD46F824000120FDF7A8F9012001343D
:103D2000FDF7A4F9A02CDFD1094B2A4600933146B8
:103D3000084B2046FFF707FC0A20FDF797F9BD4620
:103D4000BDE8F087000020C2B8000020600200201B
:103D500024000020200000200000483F13B50B4C39
:103D6000012221460A48FDF78BFA2088FCF754FB14
:103D70000022084BFCF7B6FBFCF7C6FD01900F20B4
:103D8000FDF774F9019802B010BD00BFB800002023
:103D9000600200200000483F07B5FFF7DFFF074B38
:103DA000009000981968FCF70DFF054B1968FCF7A7
:103DB00001FE0190019803B05DF804FB240000208F
:103DC00020000020F7B50D230A24054608461646B4
:103DD0000F468DF806308DF80740FCF7C3F93346DF
:103DE00082B239462846FFF77FF92046FDF73EF9B3
:103DF00033460DF1060101222846FFF775F92046EA
:103E0000FDF734F9334601220DF107012846FFF78B
:103E10006BF92046FDF72AF903B0F0BD30B5002458
:103E20009DB021466022054604A8039400F03EFDA3
:103E30000023284600940293FDF78AF8FCF76EFEF3
:103E400002900298FDF784F8009003A90A220098D6
:103E500000F02AFD03A8FCF785F9194C82B203A9EA
:103E60000A232046FFF740F90A20FDF7FFF80A234E
:103E7000012214492046FFF737F90A20FDF7F6F82A
:103E800002992846FCF794FD20F00040019001982B
:103E90000D49FCF797FEFDF75BF8FCF73FFE01903C
:103EA0000198FDF755F8009003A900980A2200F048
:103EB000FBFC0A2203A92046FFF784FF1DB030BD9A
:103EC000A0050020844E000800007A4437B5002386
:103ED00005460F4C0F4821460193FFF7ECFC012DDE
:103EE0000BD1B4F90C00FCF719FE4FF06251FCF74E
:103EF00069FE0190019803B030BD022D02D1B4F9E2
:103F00000E00F0E7032DF5D1B4F91000EBE700BF88
:103F10003C040020D402002037B50F4C0546214652
:103F20000E48FFF701FD0023012D01930AD1B4F9DA
:103F30001200FCF7F3FD0A49FCF7F8FE0190019826
:103F400003B030BD022D02D1B4F91400F1E7032D06
:103F5000F5D1B4F91600ECE73C040020D4020020AF
:103F600000000343000000001FB504460120FFF7D6
:103F7000ADFF00900220FFF7A9FF01900320FFF79B
:103F8000A5FF012C02901AD1009C0198029900F023
:103F9000F1FD01462046FCF7C9FE00F0D7FCFCF716
:103FA0004DFA0DA3D3E90023FCF79CFAFCF7ACFC17
:103FB00003900A20FDF75AF8039804B010BD022CB4
:103FC00002D1019C0098E1E7032CF2D1029C0098F9
:103FD0000199DCE7AFF300808A7664E5DBA54C400D
:103FE000F7B51446FFF798FF114B0190019D186833
:103FF000FCF794FD2946FCF7E5FDFCF71FFA0AA340
:10400000D3E90023FCF76EFA064620680F46FCF75A
:1040100015FA02460B4630463946FCF7B1F8FCF774
:1040200073FC206003B0F0BD8DEDB5A0F7C6B03EC7
:10403000280000207FB51B68064601930023084630
:1040400002930C4603931546FFF78EFF2A46029013
:1040500031462046FFF7C4FF0446019928604FF01F
:104060007E50FCF7A5FC2146FCF7ACFD029D019EAD
:10407000044631462846FCF7A5FD01462046FCF7DC
:1040800099FC03900120FCF7F1FF039804B070BD88
:1040900092FBF1F330B503FB112285B0044612B157
:1040A000006905B030BD0846FCF738FD0221174B0A
:1040B000174AFFF7BFFF174D029002982946FCF7F9
:1040C0001FFF00B10295144D02982946FCF736FFF8
:1040D00000B1029502991148FCF76AFC029002991E
:1040E000E068FCF765FC20F0004001900199204653
:1040F000FFF7B8FA21690A48FCF75AFC03900398C5
:10410000FFF794FD0A20FFF75BFACAE710000020D2
:1041100010040020000096C20000F0C10000F04131
:10412000000020422DE9F04F85B0FCF77BFFFFF740
:104130003DFDFFF7BDFCFFF7A3FCFFF7DBFC00F044
:1041400099FA00F0E9FAFFF729FC00F003FA0021E0
:104150009248FEF7EFFE924CFFF76AF99148FEF79E
:1041600079FC9048FEF788FC22688F49D3688F4815
:1041700043F02003D3600122FDF782F88C4B8D4F72
:104180001D68DFF8CCB22846FBF7ECFF82B2204670
:10419000002429460A23FEF7A7FF8748FFF746FDBC
:1041A00023462246009485498548FFF731FB854D1B
:1041B0002246824928708248FFF76DFA28704FF432
:1041C000FA70FCF753FF0120FFF7CEFE7E4B7F4CC9
:1041D00018600220FFF7C8FE7D4B7E4D186003205B
:1041E000FFF7C2FE7C4B18602068FFF71FFD2368B5
:1041F0007A4A3B607A4B7B495B687B482B60009432
:104200007A4BFFF708FA0646774C0FCE0FC40FCE55
:104210000FC4336803972360754C00260120FCF718
:1042200025FF744BDFF8B081734FCBF800305B464D
:10423000424603213846FFF7FDFE704B424643F8E5
:10424000260039460320FFF7CBFE6D4B43F82600CE
:104250000136322EEBD16B492046FBF779FF00285F
:1042600079D069492046FBF773FF68B96749204652
:1042700000F024FB0A2266494948FFF7A3FD0A2201
:1042800064494748FFF79EFD63492046FBF760FFFE
:1042900028B9FFF70BFD5D49204600F00FFB5F4991
:1042A0002046FBF755FF80B95D490A223C48FFF7DD
:1042B00089FD5C4B1868FFF7B1FD5B4B1868FFF791
:1042C000ADFD5249204600F0F9FA58492046FBF767
:1042D0003FFF28B9FFF7EAFC4C49204600F0EEFA10
:1042E00053492046FBF734FFA8B93D4B4FF47A7190
:1042F0005A68504B3C481A602B68D21A4E4B1B68C8
:10430000B2FBF3F24A434D4B1A60FFF7C1FE039B29
:104310001860FFF783FD4A492046FBF719FF18B9DB
:104320003A49204600F0CAFA464F474E3B7833449C
:1043300013F8013C0D2B7FF470AF31462C4800F090
:10434000BDFA0020324664213870FFF7A3FC01203B
:10435000FCF78CFE60E72D49204600F0AFFA4FF0E5
:10436000A10A00264FF00008384FDFF8E8903946E0
:104370003046FCF7C9FAFFF759FCFFF70DFDFFF7D0
:104380004DFD3046394642464B46FBF7F9FEBAF141
:10439000010A06460F46EAD163E700BF2005002068
:1043A000A005002060050020B80000206002002069
:1043B0002C000020BC000020000020C23C04002093
:1043C000D402002038040020280300208C010020A3
:1043D000100400200804002088010020180000209C
:1043E000001000E01C000020140400201400002035
:1043F000F50100209A99593F00007A4438030020C3
:10440000C0000020864E0008964E00086A4F000843
:10441000A74E0008C54E0008E34E0008F14E000804
:10442000014F000820000020240000201F4F00083A
:10443000324F000800040020300000200C0400204F
:10444000424F0008F401002090010020000044C009
:10445000100000200000E03F704700000E4B82B0CB
:104460009A6942F001029A619A6902F0010200928F
:10447000009ADA6942F08052DA61DB69074A03F098
:1044800080530193019B536823F0E06343F0007372
:10449000536002B0704700BF0010024000000140AE
:1044A0007047FEE7FEE7FEE7FEE77047704770479C
:1044B000FCF7CABD0148FDF733B900BF90020020E8
:1044C0000148FEF7EFBA00BF600500200148FEF783
:1044D000E9BA00BF2005002038B5084D084C284631
:1044E000FEF7FEFE217807480A23014401222846F0
:1044F000FEF756FE23780133237038BDA005002057
:10450000F4010020900100200F4B1A6842F00102D4
:104510001A6059680D4A0A405A601A6822F084727B
:1045200022F480321A601A6822F480221A605A68D3
:1045300022F4FE025A604FF41F029A604FF00062AC
:10454000034B9A60704700BF001002400000FFF864
:1045500000ED00E07FB51022002102A800F0A6F9CE
:104560004FF4A07214481549002380E806004FF468
:10457000FA42009301938360C260036143618361E7
:10458000FEF76AFB08B1FFF767FF4FF4805302A9FB
:1045900009480293FEF72CFC08B1FFF75DFF0023EA
:1045A0006946054800930193FEF7E0FC08B1FFF768
:1045B00053FF07B05DF804FB60050020002C0140AC
:1045C00007B50368154A934214D1154B19209A690F
:1045D00042F400629A6100229B69114603F4006371
:1045E0000093009BFCF78EFF1920FCF7BFFF03B080
:1045F0005DF804FB0B4A9342F9D1094B1E20DA699E
:1046000042F00402DA610022DB69114603F0040380
:104610000193019BFCF776FF1E20E6E7002C01408A
:10462000001002400008004010B5044686B0102279
:10463000002102A800F03AF922680C4B9A4213D1EB
:1046400003F502339A6902A942F008029A619B6954
:10465000074803F008030193019B402302930223C0
:1046600003930593FDF7F0F806B010BD0008004075
:10467000000C014010B58EB01022002103A800F0FC
:1046800015F900241C2221460DEB0200019402942E
:1046900000F00CF940231E481E4A846080E80C009C
:1046A00044F620630461C3608461FEF7D5FA08B163
:1046B000FFF7D2FE4FF4805303A915480393FEF78A
:1046C00097FB08B1FFF7C8FE1148FEF7DFFA08B103
:1046D000FFF7C2FE002301A90D4801930293FEF7E4
:1046E00045FC08B1FFF7B8FE6023002207934FF4A2
:1046F0007A7307A90648089309920B92FEF70CFB00
:1047000008B1FFF7A9FE0248FFF78EFF0EB010BDFB
:10471000200500200008004008B54FF4E13E0A489B
:104720000A4B0C2280E80840002342618360C3608A
:1047300003618361C361FEF7A9FC18B1BDE80840BD
:10474000FFF78ABE08BD00BFA00500200038014069
:1047500010B5044686B01022002102A800F0A6F889
:1047600022681B4B9A4230D103F558439A6902A93B
:1047700042F480429A619A69164802F4804200929B
:10478000009A9A69002442F004029A619B6903F03E
:1047900004030193019B4FF40073029302230393DC
:1047A00003230593FDF750F84FF4806302A90948ED
:1047B000029303940494FDF747F8252022462146EE
:1047C000FCF7A0FE2520FCF7D1FE06B010BD00BF0F
:1047D0000038014000080140002103E00B4B5B580A
:1047E000435004310A480B4B42189A42F6D30A4A06
:1047F00002E0002342F8043B084B9A42F9D3FFF74A
:1048000083FE00F015F8FFF78DFC7047D84F0008C5
:10481000000000209C0000209C000020E0050020FB
:10482000FEE70000014B1868704700BF340000200D
:1048300070B500250C4E0D4CA41BA410A54209D147
:1048400000F00CFB00250A4E0A4CA41BA410A54244
:1048500005D170BD56F8253098470135EEE756F87A
:10486000253098470135F2E7D04F0008D04F0008B7
:10487000D04F0008D44F0008931E222B10B50C46D1
:1048800004D900231C460B70204610BD0A2A09D10A
:10489000002807DA2D230B7001214042214400F04B
:1048A00015F8F1E70021F9E7FFF7E6BF03460244F8
:1048B000934200D1704703F8011BF9E7034611F852
:1048C000012B03F8012B002AF9D17047F0B58BB00A
:1048D00003460F466D461C4C04F1200E2E46206800
:1048E0006168083403C674453546F7D121792068DC
:1048F0003171911E222930604FF0000104D93970C6
:104900000F4638460BB0F0BD781E0646B3FBF2F5F5
:1049100002FB15330DF1280E734413F8283C4C1C90
:1049200006F8013F2B4665B93D557A18CC1AA342CB
:10493000E7DA44781578013300F8015F02F801499D
:10494000F4E72146E2E700BF834F00082DE9F0417C
:1049500020F00045B5F1A14F044607460EDBB5F146
:10496000FF4F04DD0146FCF725F8044603E000286C
:1049700000F3D280694C2046BDE8F081684B9D422F
:104980000EDCB5F1445F08DA6649FCF713F84FF026
:104990007E51FCF7D3FA0028EDD14FF0FF361CE032
:1049A00000F0E4F8604B04469D427CDCA3F5D003A4
:1049B0009D4267DC0146FBF7FDFF4FF07E51FBF7A0
:1049C000F7FF4FF0804105462046FBF7F3FF014615
:1049D0002846FCF7ABF90026044621462046FCF7A2
:1049E000F1F801468046FCF7EDF805464F49FCF723
:1049F000E9F84F49FBF7DEFF2946FCF7E3F84D499C
:104A0000FBF7D8FF2946FCF7DDF84B49FBF7D2FF4F
:104A10002946FCF7D7F84949FBF7CCFF2946FCF7B4
:104A2000D1F84749FBF7C6FF4146FCF7CBF84549AB
:104A300080462846FCF7C6F84349FBF7B9FF2946EC
:104A4000FCF7C0F84149FBF7B3FF2946FCF7BAF879
:104A50003F49FBF7ADFF2946FCF7B4F83D49FBF7AA
:104A6000A7FF2946FCF7AEF8731C0146404639D132
:104A7000FBF7A0FF2146FCF7A5F801462046FBF70F
:104A800097FF72E74FF07E51FBF792FF4FF07E5198
:104A900005462046FBF78EFF01462846FCF746F9FF
:104AA0000126044699E72C4B9D4214DC4FF07F51C0
:104AB000FBF77EFF4FF07F5105462046FCF782F85A
:104AC0004FF07E51FBF776FF01462846FCF72EF9A2
:104AD0000226044681E701462048FCF727F9032611
:104AE00004467AE7FBF766FF2146FCF76BF81C4BA0
:104AF00053F82610FBF75CFF2146FBF759FF194BD3
:104B0000014653F82600FBF753FF002F0446BFF67B
:104B100032AF00F100442EE7134C2CE7DB0FC9BF86
:104B2000FFFFDF3ECAF24971FFFF973FD769853C1F
:104B300059DA4B3D356B883D6E2EBA3D2549123E04
:104B4000ABAAAA3E21A215BD6BF16E3D95879D3D96
:104B5000388EE33DCDCC4C3EFFFF1B40000080BFB4
:104B6000B84F0008A84F0008DB0FC93F20F00040F5
:104B7000704700002DE9F0418AB007460E4600F06C
:104B800051F8244D044695F90030013333D000F03C
:104B90005DF9804600282ED1384600F057F950B311
:104BA000304600F053F930B3032300931A4B3846D4
:104BB0000193CDF82080FBF741FCCDE9020130469E
:104BC000FBF73CFC95F90030CDE90401BBB94FF08F
:104BD0006042124BCDE90623684600F035F9A0B1DA
:104BE000089B1BB1FFF71EFE089B0360DDE9060171
:104BF000FBF78AFE044620460AB0BDE8F08100209B
:104C00000749022BCDE90601E6D1FFF70BFE22236F
:104C10000360E5E798000020C84F0008FFFFEF475A
:104C20000000F07F2DE9F04720F0004421F000461D
:104C3000B442BEBF234634461E46A31BB3F1706F79
:104C40002546374605DD31462046FBF7B3FE0546CF
:104C500010E0B4F1B14F6BDDB4F1FF4F10DB0CD0BD
:104C600031462046FBF7A6FE0546B6F1FF4F01D1BF
:104C70004FF0FF452846BDE8F0874FF0FF45F4E7C9
:104C800004F15E4406F15E46254637464FF044087F
:104C9000B6F11A5F12DA002EECD0B6F5000F4ADA40
:104CA0004FF0FD413846FBF78DFF4FF0FD410746C1
:104CB0002846FBF787FF0546A8F17E0839462846B7
:104CC000FBF776FE014681463846FCF719F9344B6E
:104CD000002839D01C4021462046FBF773FF394697
:104CE000064607F10040FBF76DFF214607462846C0
:104CF000FBF75EFE214681462846FBF75BFE014638
:104D00004846FBF75FFF01463846FBF751FE014678
:104D10003046FBF74DFE00F045F80546B8F1000FB0
:104D2000A8D04FEAC85101F17E51FBF74BFF8EE747
:104D30004FF00008ACE704F1085406F10856A8F15A
:104D4000440825463746B9E71E4004F500042146CD
:104D50003046FBF737FF4946824609F10040FBF732
:104D600031FF294681462846FBF724FE2146FBF702
:104D70001FFE3946FBF726FF314605463846FBF74E
:104D800017FE2146FBF71EFF01462846FBF712FEE1
:104D900001464846FBF70CFE01465046B9E700BF06
:104DA00000F0FFFF20F00042B2F1FF4F70B5034664
:104DB000044609D30146FBF705FF01462046FBF7F1
:104DC000F9FD0446204670BD002AFBD0002806DA13
:104DD0000146FBF7EDFD0146FBF7A8FFF1E7B2F551
:104DE000000F4FEAE05404D20022190229D5013AFB
:104DF000A41A7F3CE2074FF000024FEA6401164616
:104E00004FF019044FF08070C3F3160343F400030E
:104E100048BF5B005B0035189D42DEBF2E185B1B50
:104E20001218013C4FEA43034FEA5000F3D113B18B
:104E3000013222F00102541004F17C5404EBC154FD
:104E4000C0E75B000132D0E70020704720F000404F
:104E5000B0F1FF4FACBF002001207047F8B500BF94
:104E6000F8BC08BC9E467047F8B500BFF8BC08BC4B
:044E70009E467047A3
:104E740002030405060708090A0B0C0D0E0F101097
:104E84002E0066696C5F746573743A73746172742E
:104E94000D007365745F616E676C653A6465627575
:104EA400670D00737461727465642074657374694A
:104EB4006E672073657474696E6720616E676C65D4
:104EC4000073746F707065642074657374696E67C1
:104ED4002073657474696E6720616E676C65006326
:104EE400616C6962723A73746172740D0063616C0F
:104EF4006962723A73656E645F61620D0072657314
:104F0400697374616E636520746F2064656772658C
:104F140065206120616E6420623A0073746172746A
:104F24003A63616C6962726174696F6E0D007472C8
:104F340061636B696E673A73746172740D007472A5
:104F440061636B696E673A73746F700D00486561D5
:104F5400642070726F6772616D2067726565747327
:104F640020796F750D0A00000000000000000001A8
:104F740002030406070809000000000102030430CC
:104F84003132333435363738396162636465666784
:104F940068696A6B6C6D6E6F707172737475767715
:104FA40078797A003863ED3EDA0F493F5E987B3FAB
:104FB400DA0FC93F6937AC3168212233B40F143397
:0C4FC4006821A2336879706F74660000E9
:044FD000350100089F
:044FD40011010008BF
:104FD80001000000100000000080BB441CC73141E4
:104FE8003333733F8FC2F53C0AD7233D3D0AD73F81
:104FF80025860842FA7E0B42E8030000514F00085C
:105008000024F40038000020000000000000000028
:105018000000000000000000000000000000000088
:105028000000000000000000000000000000000078
:105038000000000000000000000000000000000068
:105048000000000000000000000000000000000058
:105058000000000000000000000000000000000048
:0C5068000000000000000000010000003B
:04000005080047D9CF
:00000001FF
